{
  "_format": "hh3-artifact-1",
  "contractName": "Attendance",
  "sourceName": "contracts/Attendance.sol",
  "abi": [
    {
      "inputs": [
        {
          "internalType": "address",
          "name": "_rewardToken",
          "type": "address"
        },
        {
          "internalType": "address",
          "name": "initialOwner",
          "type": "address"
        }
      ],
      "stateMutability": "nonpayable",
      "type": "constructor"
    },
    {
      "inputs": [],
      "name": "AlreadyClaimed",
      "type": "error"
    },
    {
      "inputs": [],
      "name": "InsufficientPool",
      "type": "error"
    },
    {
      "inputs": [],
      "name": "InvalidConfig",
      "type": "error"
    },
    {
      "inputs": [],
      "name": "NotActive",
      "type": "error"
    },
    {
      "inputs": [
        {
          "internalType": "address",
          "name": "owner",
          "type": "address"
        }
      ],
      "name": "OwnableInvalidOwner",
      "type": "error"
    },
    {
      "inputs": [
        {
          "internalType": "address",
          "name": "account",
          "type": "address"
        }
      ],
      "name": "OwnableUnauthorizedAccount",
      "type": "error"
    },
    {
      "inputs": [
        {
          "internalType": "address",
          "name": "token",
          "type": "address"
        }
      ],
      "name": "SafeERC20FailedOperation",
      "type": "error"
    },
    {
      "inputs": [],
      "name": "UnknownDistribution",
      "type": "error"
    },
    {
      "anonymous": false,
      "inputs": [
        {
          "indexed": true,
          "internalType": "uint256",
          "name": "id",
          "type": "uint256"
        },
        {
          "indexed": true,
          "internalType": "address",
          "name": "user",
          "type": "address"
        },
        {
          "indexed": false,
          "internalType": "uint256",
          "name": "amount",
          "type": "uint256"
        }
      ],
      "name": "Claim",
      "type": "event"
    },
    {
      "anonymous": false,
      "inputs": [
        {
          "indexed": false,
          "internalType": "uint256",
          "name": "amount",
          "type": "uint256"
        },
        {
          "indexed": false,
          "internalType": "uint256",
          "name": "period",
          "type": "uint256"
        }
      ],
      "name": "ConfigUpdated",
      "type": "event"
    },
    {
      "anonymous": false,
      "inputs": [
        {
          "indexed": true,
          "internalType": "uint256",
          "name": "id",
          "type": "uint256"
        },
        {
          "indexed": false,
          "internalType": "uint256",
          "name": "endBlock",
          "type": "uint256"
        },
        {
          "indexed": false,
          "internalType": "uint256",
          "name": "amount",
          "type": "uint256"
        }
      ],
      "name": "DistributionCreated",
      "type": "event"
    },
    {
      "anonymous": false,
      "inputs": [
        {
          "indexed": true,
          "internalType": "address",
          "name": "previousOwner",
          "type": "address"
        },
        {
          "indexed": true,
          "internalType": "address",
          "name": "newOwner",
          "type": "address"
        }
      ],
      "name": "OwnershipTransferred",
      "type": "event"
    },
    {
      "anonymous": false,
      "inputs": [
        {
          "indexed": true,
          "internalType": "address",
          "name": "to",
          "type": "address"
        },
        {
          "indexed": false,
          "internalType": "uint256",
          "name": "amount",
          "type": "uint256"
        }
      ],
      "name": "Withdrawn",
      "type": "event"
    },
    {
      "inputs": [],
      "name": "amount",
      "outputs": [
        {
          "internalType": "uint256",
          "name": "",
          "type": "uint256"
        }
      ],
      "stateMutability": "view",
      "type": "function"
    },
    {
      "inputs": [
        {
          "internalType": "uint256",
          "name": "id",
          "type": "uint256"
        }
      ],
      "name": "claim",
      "outputs": [],
      "stateMutability": "nonpayable",
      "type": "function"
    },
    {
      "inputs": [
        {
          "internalType": "uint256",
          "name": "",
          "type": "uint256"
        },
        {
          "internalType": "address",
          "name": "",
          "type": "address"
        }
      ],
      "name": "claimed",
      "outputs": [
        {
          "internalType": "bool",
          "name": "",
          "type": "bool"
        }
      ],
      "stateMutability": "view",
      "type": "function"
    },
    {
      "inputs": [],
      "name": "createDistribution",
      "outputs": [
        {
          "internalType": "uint256",
          "name": "id",
          "type": "uint256"
        }
      ],
      "stateMutability": "nonpayable",
      "type": "function"
    },
    {
      "inputs": [
        {
          "internalType": "uint256",
          "name": "id",
          "type": "uint256"
        }
      ],
      "name": "distributions",
      "outputs": [
        {
          "components": [
            {
              "internalType": "uint256",
              "name": "amount",
              "type": "uint256"
            },
            {
              "internalType": "uint256",
              "name": "startBlock",
              "type": "uint256"
            },
            {
              "internalType": "uint256",
              "name": "endBlock",
              "type": "uint256"
            }
          ],
          "internalType": "struct Attendance.Distribution",
          "name": "",
          "type": "tuple"
        }
      ],
      "stateMutability": "view",
      "type": "function"
    },
    {
      "inputs": [],
      "name": "distributionsCount",
      "outputs": [
        {
          "internalType": "uint256",
          "name": "",
          "type": "uint256"
        }
      ],
      "stateMutability": "view",
      "type": "function"
    },
    {
      "inputs": [
        {
          "internalType": "uint256",
          "name": "id",
          "type": "uint256"
        },
        {
          "internalType": "address",
          "name": "user",
          "type": "address"
        }
      ],
      "name": "hasClaimed",
      "outputs": [
        {
          "internalType": "bool",
          "name": "",
          "type": "bool"
        }
      ],
      "stateMutability": "view",
      "type": "function"
    },
    {
      "inputs": [
        {
          "internalType": "uint256",
          "name": "id",
          "type": "uint256"
        }
      ],
      "name": "isActive",
      "outputs": [
        {
          "internalType": "bool",
          "name": "",
          "type": "bool"
        }
      ],
      "stateMutability": "view",
      "type": "function"
    },
    {
      "inputs": [],
      "name": "owner",
      "outputs": [
        {
          "internalType": "address",
          "name": "",
          "type": "address"
        }
      ],
      "stateMutability": "view",
      "type": "function"
    },
    {
      "inputs": [],
      "name": "period",
      "outputs": [
        {
          "internalType": "uint256",
          "name": "",
          "type": "uint256"
        }
      ],
      "stateMutability": "view",
      "type": "function"
    },
    {
      "inputs": [],
      "name": "renounceOwnership",
      "outputs": [],
      "stateMutability": "nonpayable",
      "type": "function"
    },
    {
      "inputs": [],
      "name": "rewardToken",
      "outputs": [
        {
          "internalType": "contract IERC20",
          "name": "",
          "type": "address"
        }
      ],
      "stateMutability": "view",
      "type": "function"
    },
    {
      "inputs": [
        {
          "internalType": "uint256",
          "name": "_amount",
          "type": "uint256"
        },
        {
          "internalType": "uint256",
          "name": "_period",
          "type": "uint256"
        }
      ],
      "name": "setConfig",
      "outputs": [],
      "stateMutability": "nonpayable",
      "type": "function"
    },
    {
      "inputs": [
        {
          "internalType": "address",
          "name": "newOwner",
          "type": "address"
        }
      ],
      "name": "transferOwnership",
      "outputs": [],
      "stateMutability": "nonpayable",
      "type": "function"
    },
    {
      "inputs": [
        {
          "internalType": "uint256",
          "name": "value",
          "type": "uint256"
        }
      ],
      "name": "withdraw",
      "outputs": [],
      "stateMutability": "nonpayable",
      "type": "function"
    }
  ],
  "bytecode": "0x60a0604052620f424060015561151860025534801561001c575f5ffd5b50604051610bb3380380610bb383398101604081905261003b91610116565b806001600160a01b03811661006957604051631e4fbdf760e01b81525f600482015260240160405180910390fd5b610072816100ac565b506001600160a01b03821661009a576040516306b7c75960e31b815260040160405180910390fd5b506001600160a01b0316608052610147565b5f80546001600160a01b038381166001600160a01b0319831681178455604051919092169283917f8be0079c531659141344cd1fd0a4f28419497f9722a3daafe3b4186f6b6457e09190a35050565b80516001600160a01b0381168114610111575f5ffd5b919050565b5f5f60408385031215610127575f5ffd5b610130836100fb565b915061013e602084016100fb565b90509250929050565b608051610a3f6101745f395f81816102400152818161030001528181610461015261051d0152610a3f5ff3fe608060405234801561000f575f5ffd5b50600436106100f0575f3560e01c8063873f6f9e11610093578063e6b1474411610063578063e6b1474414610217578063ef78d4fd1461021f578063f2fde38b14610228578063f7c618c11461023b575f5ffd5b8063873f6f9e146101c15780638da5cb5b146101d4578063aa8c217c146101f8578063daafd1b61461020f575f5ffd5b8063379607f5116100ce578063379607f51461015e5780634487d3df14610171578063715018a6146101a657806382afd23b146101ae575f5ffd5b8063120aa877146100f45780631e34c585146101365780632e1a7d4d1461014b575b5f5ffd5b610121610102366004610945565b600460209081525f928352604080842090915290825290205460ff1681565b60405190151581526020015b60405180910390f35b61014961014436600461096f565b610262565b005b61014961015936600461098f565b6102da565b61014961016c36600461098f565b610377565b61018461017f36600461098f565b610588565b604080518251815260208084015190820152918101519082015260600161012d565b610149610619565b6101216101bc36600461098f565b61062c565b6101216101cf366004610945565b6106a1565b5f546001600160a01b03165b6040516001600160a01b03909116815260200161012d565b61020160015481565b60405190815260200161012d565b600354610201565b6102016106cd565b61020160025481565b6101496102363660046109a6565b6107d1565b6101e07f000000000000000000000000000000000000000000000000000000000000000081565b61026a610813565b811580610275575080155b15610293576040516306b7c75960e31b815260040160405180910390fd5b6001829055600281905560408051838152602081018390527f0936b3616d5072fa8f7381ef8e7c35d39bed9ecfb2184e908a56027ad5c0b6bc910160405180910390a15050565b6102e2610813565b6103276102f65f546001600160a01b031690565b6001600160a01b037f000000000000000000000000000000000000000000000000000000000000000016908361083f565b5f546001600160a01b03166001600160a01b03167f7084f5476618d8e60b11ef0d7d3f06914655adb8793e28ff7f018d4c76d505d58260405161036c91815260200190565b60405180910390a250565b6003548110610399576040516320c4f1d360e11b815260040160405180910390fd5b5f600382815481106103ad576103ad6109bf565b5f918252602091829020604080516060810182526003909302909101805483526001810154938301849052600201549082015291504310806103f25750806040015143115b1561041057604051634065aaf160e11b815260040160405180910390fd5b5f82815260046020908152604080832033845290915290205460ff161561044a57604051630c8d9eab60e31b815260040160405180910390fd5b80516040516370a0823160e01b81523060048201527f00000000000000000000000000000000000000000000000000000000000000006001600160a01b0316906370a0823190602401602060405180830381865afa1580156104ae573d5f5f3e3d5ffd5b505050506040513d601f19601f820116820180604052508101906104d291906109d3565b10156104f15760405163785eab3760e01b815260040160405180910390fd5b5f828152600460209081526040808320338085529252909120805460ff19166001179055815161054b917f00000000000000000000000000000000000000000000000000000000000000006001600160a01b03169161083f565b8051604051908152339083907f3ed1528b0fdc7c5207c1bf935e34a667e13656b9ed165260c522be0bc544f3039060200160405180910390a35050565b6105a960405180606001604052805f81526020015f81526020015f81525090565b60035482106105cb576040516320c4f1d360e11b815260040160405180910390fd5b600382815481106105de576105de6109bf565b905f5260205f2090600302016040518060600160405290815f8201548152602001600182015481526020016002820154815250509050919050565b610621610813565b61062a5f610879565b565b6003545f90821061063e57505f919050565b5f60038381548110610652576106526109bf565b5f91825260209182902060408051606081018252600390930290910180548352600181015493830184905260020154908201529150431080159061069a575080604001514311155b9392505050565b5f8281526004602090815260408083206001600160a01b038516845290915290205460ff165b92915050565b5f6106d6610813565b60025443905f906106e790836109ea565b60018054600380546040805160608101825284815260208082018a815282840189815297850186555f86905291517fc2575a0e9e593c00f959f8c92f12db2869c3395a3b0502d05e2516446f71f85b9585029586015590517fc2575a0e9e593c00f959f8c92f12db2869c3395a3b0502d05e2516446f71f85c85015594517fc2575a0e9e593c00f959f8c92f12db2869c3395a3b0502d05e2516446f71f85d90930192909255815185815293840183905296509293509185917f8575cc08f77b7e47684e2c272eabd12671b15b2afd8c07553eb975144c7c7156910160405180910390a250505090565b6107d9610813565b6001600160a01b03811661080757604051631e4fbdf760e01b81525f60048201526024015b60405180910390fd5b61081081610879565b50565b5f546001600160a01b0316331461062a5760405163118cdaa760e01b81523360048201526024016107fe565b61084c83838360016108c8565b61087457604051635274afe760e01b81526001600160a01b03841660048201526024016107fe565b505050565b5f80546001600160a01b038381166001600160a01b0319831681178455604051919092169283917f8be0079c531659141344cd1fd0a4f28419497f9722a3daafe3b4186f6b6457e09190a35050565b60405163a9059cbb60e01b5f8181526001600160a01b038616600452602485905291602083604481808b5af1925060015f5114831661091e578383151615610912573d5f823e3d81fd5b5f873b113d1516831692505b60405250949350505050565b80356001600160a01b0381168114610940575f5ffd5b919050565b5f5f60408385031215610956575f5ffd5b823591506109666020840161092a565b90509250929050565b5f5f60408385031215610980575f5ffd5b50508035926020909101359150565b5f6020828403121561099f575f5ffd5b5035919050565b5f602082840312156109b6575f5ffd5b61069a8261092a565b634e487b7160e01b5f52603260045260245ffd5b5f602082840312156109e3575f5ffd5b5051919050565b808201808211156106c757634e487b7160e01b5f52601160045260245ffdfea26469706673582212200e28f9ea6944da9ea09ee5f43dd18b92f76b647281ff041b67b29ab51db6600f64736f6c634300081c0033",
  "linkReferences": {},
  "deployedLinkReferences": {},
  "immutableReferences": {
    "830": [
      {
        "length": 32,
        "start": 576
      },
      {
        "length": 32,
        "start": 768
      },
      {
        "length": 32,
        "start": 1121
      },
      {
        "length": 32,
        "start": 1309
      }
    ]
  },
  "inputSourceName": "project/contracts/Attendance.sol",
  "buildInfoId": "solc-0_8_28-51292838dee97b2d97d3fc5fa54911353d66182e"
}