{
  "_format": "hh3-artifact-1",
  "contractName": "Attendance",
  "sourceName": "contracts/Attendance.sol",
  "abi": [
    {
      "inputs": [
        {
          "internalType": "address",
          "name": "_rewardToken",
          "type": "address"
        },
        {
          "internalType": "address",
          "name": "initialOwner",
          "type": "address"
        }
      ],
      "stateMutability": "nonpayable",
      "type": "constructor"
    },
    {
      "inputs": [],
      "name": "AlreadyClaimed",
      "type": "error"
    },
    {
      "inputs": [],
      "name": "InsufficientPool",
      "type": "error"
    },
    {
      "inputs": [],
      "name": "InvalidConfig",
      "type": "error"
    },
    {
      "inputs": [],
      "name": "MaxClaimersReached",
      "type": "error"
    },
    {
      "inputs": [],
      "name": "NotActive",
      "type": "error"
    },
    {
      "inputs": [],
      "name": "NotAllowedCreator",
      "type": "error"
    },
    {
      "inputs": [
        {
          "internalType": "address",
          "name": "owner",
          "type": "address"
        }
      ],
      "name": "OwnableInvalidOwner",
      "type": "error"
    },
    {
      "inputs": [
        {
          "internalType": "address",
          "name": "account",
          "type": "address"
        }
      ],
      "name": "OwnableUnauthorizedAccount",
      "type": "error"
    },
    {
      "inputs": [
        {
          "internalType": "address",
          "name": "token",
          "type": "address"
        }
      ],
      "name": "SafeERC20FailedOperation",
      "type": "error"
    },
    {
      "inputs": [],
      "name": "UnknownDistribution",
      "type": "error"
    },
    {
      "anonymous": false,
      "inputs": [
        {
          "indexed": true,
          "internalType": "uint256",
          "name": "id",
          "type": "uint256"
        },
        {
          "indexed": true,
          "internalType": "address",
          "name": "user",
          "type": "address"
        },
        {
          "indexed": false,
          "internalType": "uint256",
          "name": "amount",
          "type": "uint256"
        }
      ],
      "name": "Claim",
      "type": "event"
    },
    {
      "anonymous": false,
      "inputs": [
        {
          "indexed": false,
          "internalType": "uint256",
          "name": "amount",
          "type": "uint256"
        },
        {
          "indexed": false,
          "internalType": "uint256",
          "name": "period",
          "type": "uint256"
        }
      ],
      "name": "ConfigUpdated",
      "type": "event"
    },
    {
      "anonymous": false,
      "inputs": [
        {
          "indexed": true,
          "internalType": "address",
          "name": "account",
          "type": "address"
        }
      ],
      "name": "CreatorAdded",
      "type": "event"
    },
    {
      "anonymous": false,
      "inputs": [
        {
          "indexed": true,
          "internalType": "address",
          "name": "account",
          "type": "address"
        }
      ],
      "name": "CreatorRemoved",
      "type": "event"
    },
    {
      "anonymous": false,
      "inputs": [
        {
          "indexed": true,
          "internalType": "uint256",
          "name": "id",
          "type": "uint256"
        }
      ],
      "name": "DistributionCancelled",
      "type": "event"
    },
    {
      "anonymous": false,
      "inputs": [
        {
          "indexed": true,
          "internalType": "uint256",
          "name": "id",
          "type": "uint256"
        },
        {
          "indexed": false,
          "internalType": "uint256",
          "name": "endBlock",
          "type": "uint256"
        },
        {
          "indexed": false,
          "internalType": "uint256",
          "name": "amount",
          "type": "uint256"
        },
        {
          "indexed": false,
          "internalType": "uint256",
          "name": "maxClaimers",
          "type": "uint256"
        }
      ],
      "name": "DistributionCreated",
      "type": "event"
    },
    {
      "anonymous": false,
      "inputs": [
        {
          "indexed": true,
          "internalType": "address",
          "name": "previousOwner",
          "type": "address"
        },
        {
          "indexed": true,
          "internalType": "address",
          "name": "newOwner",
          "type": "address"
        }
      ],
      "name": "OwnershipTransferred",
      "type": "event"
    },
    {
      "anonymous": false,
      "inputs": [
        {
          "indexed": true,
          "internalType": "address",
          "name": "to",
          "type": "address"
        },
        {
          "indexed": false,
          "internalType": "uint256",
          "name": "amount",
          "type": "uint256"
        }
      ],
      "name": "Withdrawn",
      "type": "event"
    },
    {
      "inputs": [
        {
          "internalType": "address",
          "name": "account",
          "type": "address"
        }
      ],
      "name": "addCreator",
      "outputs": [],
      "stateMutability": "nonpayable",
      "type": "function"
    },
    {
      "inputs": [],
      "name": "amount",
      "outputs": [
        {
          "internalType": "uint256",
          "name": "",
          "type": "uint256"
        }
      ],
      "stateMutability": "view",
      "type": "function"
    },
    {
      "inputs": [
        {
          "internalType": "uint256",
          "name": "id",
          "type": "uint256"
        }
      ],
      "name": "cancelDistribution",
      "outputs": [],
      "stateMutability": "nonpayable",
      "type": "function"
    },
    {
      "inputs": [
        {
          "internalType": "uint256",
          "name": "id",
          "type": "uint256"
        }
      ],
      "name": "claim",
      "outputs": [],
      "stateMutability": "nonpayable",
      "type": "function"
    },
    {
      "inputs": [
        {
          "internalType": "uint256",
          "name": "",
          "type": "uint256"
        },
        {
          "internalType": "address",
          "name": "",
          "type": "address"
        }
      ],
      "name": "claimed",
      "outputs": [
        {
          "internalType": "bool",
          "name": "",
          "type": "bool"
        }
      ],
      "stateMutability": "view",
      "type": "function"
    },
    {
      "inputs": [
        {
          "internalType": "uint256",
          "name": "maxClaimers",
          "type": "uint256"
        }
      ],
      "name": "createDistribution",
      "outputs": [
        {
          "internalType": "uint256",
          "name": "id",
          "type": "uint256"
        }
      ],
      "stateMutability": "nonpayable",
      "type": "function"
    },
    {
      "inputs": [
        {
          "internalType": "uint256",
          "name": "id",
          "type": "uint256"
        }
      ],
      "name": "distributions",
      "outputs": [
        {
          "components": [
            {
              "internalType": "uint256",
              "name": "amount",
              "type": "uint256"
            },
            {
              "internalType": "uint256",
              "name": "startBlock",
              "type": "uint256"
            },
            {
              "internalType": "uint256",
              "name": "endBlock",
              "type": "uint256"
            },
            {
              "internalType": "uint256",
              "name": "maxClaimers",
              "type": "uint256"
            },
            {
              "internalType": "uint256",
              "name": "claimsCount",
              "type": "uint256"
            },
            {
              "internalType": "bool",
              "name": "cancelled",
              "type": "bool"
            }
          ],
          "internalType": "struct Attendance.Distribution",
          "name": "",
          "type": "tuple"
        }
      ],
      "stateMutability": "view",
      "type": "function"
    },
    {
      "inputs": [],
      "name": "distributionsCount",
      "outputs": [
        {
          "internalType": "uint256",
          "name": "",
          "type": "uint256"
        }
      ],
      "stateMutability": "view",
      "type": "function"
    },
    {
      "inputs": [
        {
          "internalType": "uint256",
          "name": "id",
          "type": "uint256"
        },
        {
          "internalType": "address",
          "name": "user",
          "type": "address"
        }
      ],
      "name": "hasClaimed",
      "outputs": [
        {
          "internalType": "bool",
          "name": "",
          "type": "bool"
        }
      ],
      "stateMutability": "view",
      "type": "function"
    },
    {
      "inputs": [
        {
          "internalType": "uint256",
          "name": "id",
          "type": "uint256"
        }
      ],
      "name": "isActive",
      "outputs": [
        {
          "internalType": "bool",
          "name": "",
          "type": "bool"
        }
      ],
      "stateMutability": "view",
      "type": "function"
    },
    {
      "inputs": [
        {
          "internalType": "address",
          "name": "",
          "type": "address"
        }
      ],
      "name": "isCreator",
      "outputs": [
        {
          "internalType": "bool",
          "name": "",
          "type": "bool"
        }
      ],
      "stateMutability": "view",
      "type": "function"
    },
    {
      "inputs": [],
      "name": "owner",
      "outputs": [
        {
          "internalType": "address",
          "name": "",
          "type": "address"
        }
      ],
      "stateMutability": "view",
      "type": "function"
    },
    {
      "inputs": [],
      "name": "period",
      "outputs": [
        {
          "internalType": "uint256",
          "name": "",
          "type": "uint256"
        }
      ],
      "stateMutability": "view",
      "type": "function"
    },
    {
      "inputs": [
        {
          "internalType": "address",
          "name": "account",
          "type": "address"
        }
      ],
      "name": "removeCreator",
      "outputs": [],
      "stateMutability": "nonpayable",
      "type": "function"
    },
    {
      "inputs": [],
      "name": "renounceOwnership",
      "outputs": [],
      "stateMutability": "nonpayable",
      "type": "function"
    },
    {
      "inputs": [],
      "name": "rewardToken",
      "outputs": [
        {
          "internalType": "contract IERC20",
          "name": "",
          "type": "address"
        }
      ],
      "stateMutability": "view",
      "type": "function"
    },
    {
      "inputs": [
        {
          "internalType": "uint256",
          "name": "_amount",
          "type": "uint256"
        },
        {
          "internalType": "uint256",
          "name": "_period",
          "type": "uint256"
        }
      ],
      "name": "setConfig",
      "outputs": [],
      "stateMutability": "nonpayable",
      "type": "function"
    },
    {
      "inputs": [
        {
          "internalType": "address",
          "name": "newOwner",
          "type": "address"
        }
      ],
      "name": "transferOwnership",
      "outputs": [],
      "stateMutability": "nonpayable",
      "type": "function"
    },
    {
      "inputs": [
        {
          "internalType": "uint256",
          "name": "value",
          "type": "uint256"
        }
      ],
      "name": "withdraw",
      "outputs": [],
      "stateMutability": "nonpayable",
      "type": "function"
    }
  ],
  "bytecode": "0x60a0604052620f424060015561151860025534801561001c575f5ffd5b5060405161109838038061109883398101604081905261003b91610159565b806001600160a01b03811661006957604051631e4fbdf760e01b81525f600482015260240160405180910390fd5b610072816100ef565b506001600160a01b03821661009a576040516306b7c75960e31b815260040160405180910390fd5b6001600160a01b0380831660805281165f81815260036020526040808220805460ff19166001179055517f021a687fbe334e9e815cee8b399c0bc42e82356eb7f63a09ddb558a25d3dcdbd9190a2505061018a565b5f80546001600160a01b038381166001600160a01b0319831681178455604051919092169283917f8be0079c531659141344cd1fd0a4f28419497f9722a3daafe3b4186f6b6457e09190a35050565b80516001600160a01b0381168114610154575f5ffd5b919050565b5f5f6040838503121561016a575f5ffd5b6101738361013e565b91506101816020840161013e565b90509250929050565b608051610ee16101b75f395f81816102fd015281816103bd0152818161054a01526106220152610ee15ff3fe608060405234801561000f575f5ffd5b506004361061011c575f3560e01c806382afd23b116100a9578063daafd1b61161006e578063daafd1b6146102b2578063ef78d4fd146102ba578063efd46065146102c3578063f2fde38b146102e5578063f7c618c1146102f8575f5ffd5b806382afd23b1461024c578063873f6f9e1461025f5780638da5cb5b14610272578063aa8c217c14610296578063bd6018bb1461029f575f5ffd5b80633b9dce05116100ef5780633b9dce051461019d5780634487d3df146101b05780635c17760814610210578063715018a61461022357806372fa39d11461022b575f5ffd5b8063120aa877146101205780631e34c585146101625780632e1a7d4d14610177578063379607f51461018a575b5f5ffd5b61014d61012e366004610dc7565b600560209081525f928352604080842090915290825290205460ff1681565b60405190151581526020015b60405180910390f35b610175610170366004610df1565b61031f565b005b610175610185366004610e11565b610397565b610175610198366004610e11565b610434565b6101756101ab366004610e28565b610687565b6101c36101be366004610e11565b610725565b60405161015991905f60c082019050825182526020830151602083015260408301516040830152606083015160608301526080830151608083015260a0830151151560a083015292915050565b61017561021e366004610e11565b6107ee565b6101756108e8565b61023e610239366004610e11565b6108fb565b604051908152602001610159565b61014d61025a366004610e11565b610ada565b61014d61026d366004610dc7565b610b9f565b5f546001600160a01b03165b6040516001600160a01b039091168152602001610159565b61023e60015481565b6101756102ad366004610e28565b610bcb565b60045461023e565b61023e60025481565b61014d6102d1366004610e28565b60036020525f908152604090205460ff1681565b6101756102f3366004610e28565b610c53565b61027e7f000000000000000000000000000000000000000000000000000000000000000081565b610327610c95565b811580610332575080155b15610350576040516306b7c75960e31b815260040160405180910390fd5b6001829055600281905560408051838152602081018390527f0936b3616d5072fa8f7381ef8e7c35d39bed9ecfb2184e908a56027ad5c0b6bc910160405180910390a15050565b61039f610c95565b6103e46103b35f546001600160a01b031690565b6001600160a01b037f0000000000000000000000000000000000000000000000000000000000000000169083610cc1565b5f546001600160a01b03166001600160a01b03167f7084f5476618d8e60b11ef0d7d3f06914655adb8793e28ff7f018d4c76d505d58260405161042991815260200190565b60405180910390a250565b6004548110610456576040516320c4f1d360e11b815260040160405180910390fd5b5f6004828154811061046a5761046a610e41565b905f5260205f2090600602019050806001015443108061048d5750806002015443115b156104ab57604051634065aaf160e11b815260040160405180910390fd5b600581015460ff16156104d157604051634065aaf160e11b815260040160405180910390fd5b80600301548160040154106104f9576040516362bac82960e01b815260040160405180910390fd5b5f82815260056020908152604080832033845290915290205460ff161561053357604051630c8d9eab60e31b815260040160405180910390fd5b80546040516370a0823160e01b81523060048201527f00000000000000000000000000000000000000000000000000000000000000006001600160a01b0316906370a0823190602401602060405180830381865afa158015610597573d5f5f3e3d5ffd5b505050506040513d601f19601f820116820180604052508101906105bb9190610e55565b10156105da5760405163785eab3760e01b815260040160405180910390fd5b5f8281526005602090815260408083203384529091528120805460ff191660011790556004820180549161060d83610e80565b9091555050805461064a906001600160a01b037f000000000000000000000000000000000000000000000000000000000000000016903390610cc1565b8054604051908152339083907f3ed1528b0fdc7c5207c1bf935e34a667e13656b9ed165260c522be0bc544f3039060200160405180910390a35050565b61068f610c95565b6001600160a01b03811615806106bc57506001600160a01b0381165f9081526003602052604090205460ff165b156106da576040516306b7c75960e31b815260040160405180910390fd5b6001600160a01b0381165f81815260036020526040808220805460ff19166001179055517f021a687fbe334e9e815cee8b399c0bc42e82356eb7f63a09ddb558a25d3dcdbd9190a250565b61075a6040518060c001604052805f81526020015f81526020015f81526020015f81526020015f81526020015f151581525090565b600454821061077c576040516320c4f1d360e11b815260040160405180910390fd5b6004828154811061078f5761078f610e41565b5f9182526020918290206040805160c081018252600690930290910180548352600181015493830193909352600283015490820152600382015460608201526004820154608082015260059091015460ff16151560a082015292915050565b335f9081526003602052604090205460ff1661081d5760405163bcbc578760e01b815260040160405180910390fd5b600454811061083f576040516320c4f1d360e11b815260040160405180910390fd5b6004818154811061085257610852610e41565b5f91825260209091206005600690920201015460ff161561088657604051634065aaf160e11b815260040160405180910390fd5b60016004828154811061089b5761089b610e41565b5f9182526020822060069190910201600501805460ff19169215159290921790915560405182917f301b79d5a6d67c8b210ac38661dbc6a6018558ec5b10dd5dab04ff3c98f4d01891a250565b6108f0610c95565b6108f95f610cfb565b565b335f9081526003602052604081205460ff1661092a5760405163bcbc578760e01b815260040160405180910390fd5b60025443905f9061093b9083610e98565b6001549091505f851561094e5785610951565b5f195b600480546040805160c08101825286815260208082018a81528284018a815260608085018981525f6080870181815260a0880182815260018b018c559a90915295517f8a35acfbc15ff81a39ae7d344fd709f28e8600b4aa8c65c6b64bfe7fe36bd19b60068a029081019190915593517f8a35acfbc15ff81a39ae7d344fd709f28e8600b4aa8c65c6b64bfe7fe36bd19c85015591517f8a35acfbc15ff81a39ae7d344fd709f28e8600b4aa8c65c6b64bfe7fe36bd19d84015590517f8a35acfbc15ff81a39ae7d344fd709f28e8600b4aa8c65c6b64bfe7fe36bd19e83015592517f8a35acfbc15ff81a39ae7d344fd709f28e8600b4aa8c65c6b64bfe7fe36bd19f82015594517f8a35acfbc15ff81a39ae7d344fd709f28e8600b4aa8c65c6b64bfe7fe36bd1a0909501805460ff191695151595909517909455815188815293840187905290830184905290975091925086917f030cc28c5178dde1c0af5e41877502b965d3c466c9e80aca0b05556daa0c9f64910160405180910390a250505050919050565b6004545f908210610aec57505f919050565b5f60048381548110610b0057610b00610e41565b5f9182526020918290206040805160c081018252600690930290910180548352600181015493830193909352600283015490820152600382015460608201526004820154608082015260059091015460ff1615801560a0830152909150610b6957505f92915050565b8060600151816080015110610b8057505f92915050565b80602001514310158015610b98575080604001514311155b9392505050565b5f8281526005602090815260408083206001600160a01b038516845290915290205460ff165b92915050565b610bd3610c95565b6001600160a01b0381165f9081526003602052604090205460ff16610c0b576040516306b7c75960e31b815260040160405180910390fd5b6001600160a01b0381165f81815260036020526040808220805460ff19169055517f94a409f50d78dc8628b7499ba5af0848a134b9a935a59c0a45313b67f66920f89190a250565b610c5b610c95565b6001600160a01b038116610c8957604051631e4fbdf760e01b81525f60048201526024015b60405180910390fd5b610c9281610cfb565b50565b5f546001600160a01b031633146108f95760405163118cdaa760e01b8152336004820152602401610c80565b610cce8383836001610d4a565b610cf657604051635274afe760e01b81526001600160a01b0384166004820152602401610c80565b505050565b5f80546001600160a01b038381166001600160a01b0319831681178455604051919092169283917f8be0079c531659141344cd1fd0a4f28419497f9722a3daafe3b4186f6b6457e09190a35050565b60405163a9059cbb60e01b5f8181526001600160a01b038616600452602485905291602083604481808b5af1925060015f51148316610da0578383151615610d94573d5f823e3d81fd5b5f873b113d1516831692505b60405250949350505050565b80356001600160a01b0381168114610dc2575f5ffd5b919050565b5f5f60408385031215610dd8575f5ffd5b82359150610de860208401610dac565b90509250929050565b5f5f60408385031215610e02575f5ffd5b50508035926020909101359150565b5f60208284031215610e21575f5ffd5b5035919050565b5f60208284031215610e38575f5ffd5b610b9882610dac565b634e487b7160e01b5f52603260045260245ffd5b5f60208284031215610e65575f5ffd5b5051919050565b634e487b7160e01b5f52601160045260245ffd5b5f60018201610e9157610e91610e6c565b5060010190565b80820180821115610bc557610bc5610e6c56fea26469706673582212201827b30bbf1e18865b2b192222b1a75c03cba22380702cb1ad1eb4c0cb5a58fa64736f6c634300081c0033",
  "linkReferences": {},
  "deployedLinkReferences": {},
  "immutableReferences": {
    "830": [
      {
        "length": 32,
        "start": 765
      },
      {
        "length": 32,
        "start": 957
      },
      {
        "length": 32,
        "start": 1354
      },
      {
        "length": 32,
        "start": 1570
      }
    ]
  },
  "inputSourceName": "project/contracts/Attendance.sol",
  "buildInfoId": "solc-0_8_28-65d99344e3207c2e62b855e0fa38c7b898558f01"
}