{
  "_format": "hh3-artifact-1",
  "contractName": "GPBRVSwapper",
  "sourceName": "contracts/GPBRVSwapper.sol",
  "abi": [
    {
      "inputs": [
        {
          "internalType": "address",
          "name": "_gpbrv",
          "type": "address"
        },
        {
          "internalType": "address",
          "name": "_brlm",
          "type": "address"
        },
        {
          "internalType": "address",
          "name": "_usdm",
          "type": "address"
        },
        {
          "internalType": "address",
          "name": "_sarafuPool",
          "type": "address"
        },
        {
          "internalType": "address",
          "name": "_mentoRouter",
          "type": "address"
        },
        {
          "internalType": "address",
          "name": "_mentoFactory",
          "type": "address"
        }
      ],
      "stateMutability": "nonpayable",
      "type": "constructor"
    },
    {
      "inputs": [],
      "name": "InsufficientOutput",
      "type": "error"
    },
    {
      "inputs": [],
      "name": "InvalidAddress",
      "type": "error"
    },
    {
      "inputs": [],
      "name": "MinipayAlreadyLinked",
      "type": "error"
    },
    {
      "inputs": [],
      "name": "NotConfigured",
      "type": "error"
    },
    {
      "inputs": [],
      "name": "NothingReceived",
      "type": "error"
    },
    {
      "inputs": [
        {
          "internalType": "address",
          "name": "token",
          "type": "address"
        }
      ],
      "name": "SafeERC20FailedOperation",
      "type": "error"
    },
    {
      "anonymous": false,
      "inputs": [
        {
          "indexed": true,
          "internalType": "address",
          "name": "user",
          "type": "address"
        },
        {
          "indexed": true,
          "internalType": "address",
          "name": "minipay",
          "type": "address"
        }
      ],
      "name": "Configured",
      "type": "event"
    },
    {
      "anonymous": false,
      "inputs": [
        {
          "indexed": true,
          "internalType": "address",
          "name": "minipay",
          "type": "address"
        },
        {
          "indexed": true,
          "internalType": "address",
          "name": "user",
          "type": "address"
        },
        {
          "indexed": false,
          "internalType": "uint256",
          "name": "usdmIn",
          "type": "uint256"
        },
        {
          "indexed": false,
          "internalType": "uint256",
          "name": "gpbrvOut",
          "type": "uint256"
        }
      ],
      "name": "DepositMinipay",
      "type": "event"
    },
    {
      "anonymous": false,
      "inputs": [
        {
          "indexed": true,
          "internalType": "address",
          "name": "account",
          "type": "address"
        },
        {
          "indexed": false,
          "internalType": "uint256",
          "name": "usdmIn",
          "type": "uint256"
        },
        {
          "indexed": false,
          "internalType": "uint256",
          "name": "gpbrvOut",
          "type": "uint256"
        }
      ],
      "name": "DepositedDirect",
      "type": "event"
    },
    {
      "anonymous": false,
      "inputs": [
        {
          "indexed": true,
          "internalType": "address",
          "name": "user",
          "type": "address"
        },
        {
          "indexed": true,
          "internalType": "address",
          "name": "minipay",
          "type": "address"
        },
        {
          "indexed": false,
          "internalType": "uint256",
          "name": "gpbrvIn",
          "type": "uint256"
        },
        {
          "indexed": false,
          "internalType": "uint256",
          "name": "usdmOut",
          "type": "uint256"
        }
      ],
      "name": "WithdrawMiniPay",
      "type": "event"
    },
    {
      "anonymous": false,
      "inputs": [
        {
          "indexed": true,
          "internalType": "address",
          "name": "account",
          "type": "address"
        },
        {
          "indexed": false,
          "internalType": "uint256",
          "name": "gpbrvIn",
          "type": "uint256"
        },
        {
          "indexed": false,
          "internalType": "uint256",
          "name": "usdmOut",
          "type": "uint256"
        }
      ],
      "name": "WithdrawnDirect",
      "type": "event"
    },
    {
      "inputs": [],
      "name": "brlm",
      "outputs": [
        {
          "internalType": "contract IERC20",
          "name": "",
          "type": "address"
        }
      ],
      "stateMutability": "view",
      "type": "function"
    },
    {
      "inputs": [
        {
          "internalType": "address",
          "name": "minipay",
          "type": "address"
        }
      ],
      "name": "configure",
      "outputs": [],
      "stateMutability": "nonpayable",
      "type": "function"
    },
    {
      "inputs": [
        {
          "internalType": "uint256",
          "name": "amount",
          "type": "uint256"
        },
        {
          "internalType": "uint256",
          "name": "minGpbrvOut",
          "type": "uint256"
        }
      ],
      "name": "deposit",
      "outputs": [
        {
          "internalType": "uint256",
          "name": "gpbrvOut",
          "type": "uint256"
        }
      ],
      "stateMutability": "nonpayable",
      "type": "function"
    },
    {
      "inputs": [
        {
          "internalType": "uint256",
          "name": "amount",
          "type": "uint256"
        },
        {
          "internalType": "uint256",
          "name": "minGpbrvOut",
          "type": "uint256"
        }
      ],
      "name": "depositWithMinipay",
      "outputs": [
        {
          "internalType": "uint256",
          "name": "gpbrvOut",
          "type": "uint256"
        }
      ],
      "stateMutability": "nonpayable",
      "type": "function"
    },
    {
      "inputs": [],
      "name": "gpbrv",
      "outputs": [
        {
          "internalType": "contract IERC20",
          "name": "",
          "type": "address"
        }
      ],
      "stateMutability": "view",
      "type": "function"
    },
    {
      "inputs": [],
      "name": "mentoFactory",
      "outputs": [
        {
          "internalType": "address",
          "name": "",
          "type": "address"
        }
      ],
      "stateMutability": "view",
      "type": "function"
    },
    {
      "inputs": [],
      "name": "mentoRouter",
      "outputs": [
        {
          "internalType": "contract IMentoRouter",
          "name": "",
          "type": "address"
        }
      ],
      "stateMutability": "view",
      "type": "function"
    },
    {
      "inputs": [
        {
          "internalType": "address",
          "name": "",
          "type": "address"
        }
      ],
      "name": "minipayToUser",
      "outputs": [
        {
          "internalType": "address",
          "name": "",
          "type": "address"
        }
      ],
      "stateMutability": "view",
      "type": "function"
    },
    {
      "inputs": [],
      "name": "sarafuPool",
      "outputs": [
        {
          "internalType": "contract ISwapPool",
          "name": "",
          "type": "address"
        }
      ],
      "stateMutability": "view",
      "type": "function"
    },
    {
      "inputs": [],
      "name": "usdm",
      "outputs": [
        {
          "internalType": "contract IERC20",
          "name": "",
          "type": "address"
        }
      ],
      "stateMutability": "view",
      "type": "function"
    },
    {
      "inputs": [
        {
          "internalType": "address",
          "name": "",
          "type": "address"
        }
      ],
      "name": "userToMinipay",
      "outputs": [
        {
          "internalType": "address",
          "name": "",
          "type": "address"
        }
      ],
      "stateMutability": "view",
      "type": "function"
    },
    {
      "inputs": [
        {
          "internalType": "uint256",
          "name": "amount",
          "type": "uint256"
        },
        {
          "internalType": "uint256",
          "name": "minUsdmOut",
          "type": "uint256"
        }
      ],
      "name": "withdraw",
      "outputs": [
        {
          "internalType": "uint256",
          "name": "usdmOut",
          "type": "uint256"
        }
      ],
      "stateMutability": "nonpayable",
      "type": "function"
    },
    {
      "inputs": [
        {
          "internalType": "uint256",
          "name": "amount",
          "type": "uint256"
        },
        {
          "internalType": "uint256",
          "name": "minUsdmOut",
          "type": "uint256"
        }
      ],
      "name": "withdrawWithMinipay",
      "outputs": [
        {
          "internalType": "uint256",
          "name": "usdmOut",
          "type": "uint256"
        }
      ],
      "stateMutability": "nonpayable",
      "type": "function"
    }
  ],
  "bytecode": "0x610140604052348015610010575f5ffd5b5060405161147738038061147783398101604081905261002f916100fc565b6001600160a01b038616158061004c57506001600160a01b038516155b8061005e57506001600160a01b038416155b8061007057506001600160a01b038316155b8061008257506001600160a01b038216155b8061009457506001600160a01b038116155b156100b25760405163e6c4247b60e01b815260040160405180910390fd5b6001600160a01b0395861660805293851660a05291841660c052831660e052821661010052166101205261016c565b80516001600160a01b03811681146100f7575f5ffd5b919050565b5f5f5f5f5f5f60c08789031215610111575f5ffd5b61011a876100e1565b9550610128602088016100e1565b9450610136604088016100e1565b9350610144606088016100e1565b9250610152608088016100e1565b915061016060a088016100e1565b90509295509295509295565b60805160a05160c05160e051610100516101205161120861026f5f395f81816101740152610a4501525f8181610273015281816109b20152610b0401525f81816101ea01528181610cb90152610d0c01525f818161024c015281816102d801528181610306015281816104eb015281816107940152818161080f015261083d01525f818160d401528181610327015281816103550152818161049e015281816104ca01528181610747015281816107730152818161085e015261088c01525f818161019b01528181610376015281816103cb0152818161044f0152818161047d015281816106f801528181610726015281816108ad015261090201526112085ff3fe608060405234801561000f575f5ffd5b50600436106100cb575f3560e01c806375cb267211610088578063dd8bb7f611610063578063dd8bb7f61461020c578063e2bbb15814610234578063ee138d0f14610247578063f0055aba1461026e575f5ffd5b806375cb2672146101bd57806381cd1e6a146101d25780638a63f878146101e5575f5ffd5b806312608a87146100cf57806337806b98146101135780633a77103414610134578063441a3e701461015c57806355f458ab1461016f57806360aa577514610196575b5f5ffd5b6100f67f000000000000000000000000000000000000000000000000000000000000000081565b6040516001600160a01b0390911681526020015b60405180910390f35b610126610121366004610fa4565b610295565b60405190815260200161010a565b6100f6610142366004610fc4565b60016020525f90815260409020546001600160a01b031681565b61012661016a366004610fa4565b610441565b6100f67f000000000000000000000000000000000000000000000000000000000000000081565b6100f67f000000000000000000000000000000000000000000000000000000000000000081565b6101d06101cb366004610fc4565b610558565b005b6101266101e0366004610fa4565b6106b5565b6100f67f000000000000000000000000000000000000000000000000000000000000000081565b6100f661021a366004610fc4565b5f602081905290815260409020546001600160a01b031681565b610126610242366004610fa4565b610801565b6100f67f000000000000000000000000000000000000000000000000000000000000000081565b6100f67f000000000000000000000000000000000000000000000000000000000000000081565b335f908152600160205260408120546001600160a01b0316806102cb5760405163d311bc3960e01b815260040160405180910390fd5b6103006001600160a01b037f000000000000000000000000000000000000000000000000000000000000000016333087610961565b5f61034e7f00000000000000000000000000000000000000000000000000000000000000007f0000000000000000000000000000000000000000000000000000000000000000875f306109a2565b905061039b7f00000000000000000000000000000000000000000000000000000000000000007f000000000000000000000000000000000000000000000000000000000000000083610c3e565b9250838310156103be5760405163bb2875c360e01b815260040160405180910390fd5b6103f26001600160a01b037f0000000000000000000000000000000000000000000000000000000000000000168385610dff565b60408051868152602081018590526001600160a01b0384169133917f20c88fa221296eb9a25b526fb3adf1b0f3f4e0ab21a54edcacaa9c9055f88eb191015b60405180910390a3505092915050565b5f6104776001600160a01b037f000000000000000000000000000000000000000000000000000000000000000016333086610961565b5f6104c37f00000000000000000000000000000000000000000000000000000000000000007f000000000000000000000000000000000000000000000000000000000000000086610c3e565b90506105127f00000000000000000000000000000000000000000000000000000000000000007f00000000000000000000000000000000000000000000000000000000000000008386336109a2565b604080518681526020810183905291935033917f7241c511458552b9855043b2097931e9cd00b75bc7b7cb52070ccef4e117899591015b60405180910390a25092915050565b6001600160a01b038116158061057657506001600160a01b03811633145b156105945760405163e6c4247b60e01b815260040160405180910390fd5b6001600160a01b038082165f908152600160205260409020541680158015906105c657506001600160a01b0381163314155b156105e457604051637a6b074960e01b815260040160405180910390fd5b335f908152602081905260409020546001600160a01b0316801580159061061d5750826001600160a01b0316816001600160a01b031614155b15610648576001600160a01b0381165f90815260016020526040902080546001600160a01b03191690555b335f8181526020818152604080832080546001600160a01b0389166001600160a01b03199182168117909255818552600190935281842080549093168517909255519092917fcff941fc1d1ad89b3d5de05ccd516eec43fa7e5d8552f3c32f83cec7cd9080d191a3505050565b335f908152602081905260408120546001600160a01b0316806106eb5760405163d311bc3960e01b815260040160405180910390fd5b6107206001600160a01b037f000000000000000000000000000000000000000000000000000000000000000016333087610961565b5f61076c7f00000000000000000000000000000000000000000000000000000000000000007f000000000000000000000000000000000000000000000000000000000000000087610c3e565b90506107bb7f00000000000000000000000000000000000000000000000000000000000000007f00000000000000000000000000000000000000000000000000000000000000008387866109a2565b60408051878152602081018390529194506001600160a01b0384169133917f6e16f651bf004e2c4b89c4a6d680e30f726a72439f4bca165f73324246fda2ce9101610431565b5f6108376001600160a01b037f000000000000000000000000000000000000000000000000000000000000000016333086610961565b5f6108857f00000000000000000000000000000000000000000000000000000000000000007f0000000000000000000000000000000000000000000000000000000000000000865f306109a2565b90506108d27f00000000000000000000000000000000000000000000000000000000000000007f000000000000000000000000000000000000000000000000000000000000000083610c3e565b9150828210156108f55760405163bb2875c360e01b815260040160405180910390fd5b6109296001600160a01b037f0000000000000000000000000000000000000000000000000000000000000000163384610dff565b604080518581526020810184905233917fcba467e263b4720c690881b1dfd41ad2c5983fe01b061cdad2b1489945e4a2f89101610549565b61096f848484846001610e39565b61099c57604051635274afe760e01b81526001600160a01b03851660048201526024015b60405180910390fd5b50505050565b5f6109d76001600160a01b0387167f000000000000000000000000000000000000000000000000000000000000000086610ea6565b6040805160018082528183019092525f91816020015b604080516060810182525f80825260208083018290529282015282525f199092019101816109ed5790505090506040518060600160405280886001600160a01b03168152602001876001600160a01b031681526020017f00000000000000000000000000000000000000000000000000000000000000006001600160a01b0316815250815f81518110610a8257610a82611005565b60209081029190910101526040516370a0823160e01b81526001600160a01b0384811660048301525f91908816906370a0823190602401602060405180830381865afa158015610ad4573d5f5f3e3d5ffd5b505050506040513d601f19601f82011682018060405250810190610af89190611019565b90506001600160a01b037f000000000000000000000000000000000000000000000000000000000000000016633375aa2a87878588610b3961012c42611044565b6040518663ffffffff1660e01b8152600401610b5995949392919061105d565b5f604051808303815f875af1158015610b74573d5f5f3e3d5ffd5b505050506040513d5f823e601f3d908101601f19168201604052610b9b91908101906110f7565b506040516370a0823160e01b81526001600160a01b0385811660048301528291908916906370a0823190602401602060405180830381865afa158015610be3573d5f5f3e3d5ffd5b505050506040513d601f19601f82011682018060405250810190610c079190611019565b610c1191906111bf565b9250825f03610c335760405163b5c74a2760e01b815260040160405180910390fd5b505095945050505050565b6040516370a0823160e01b81523060048201525f9081906001600160a01b038516906370a0823190602401602060405180830381865afa158015610c84573d5f5f3e3d5ffd5b505050506040513d601f19601f82011682018060405250810190610ca89190611019565b9050610cde6001600160a01b0386167f000000000000000000000000000000000000000000000000000000000000000085610ea6565b604051636ce5768960e11b81526001600160a01b0385811660048301528681166024830152604482018590527f0000000000000000000000000000000000000000000000000000000000000000169063d9caed12906064015f604051808303815f87803b158015610d4d575f5ffd5b505af1158015610d5f573d5f5f3e3d5ffd5b50506040516370a0823160e01b81523060048201528392506001600160a01b03871691506370a0823190602401602060405180830381865afa158015610da7573d5f5f3e3d5ffd5b505050506040513d601f19601f82011682018060405250810190610dcb9190611019565b610dd591906111bf565b9150815f03610df75760405163b5c74a2760e01b815260040160405180910390fd5b509392505050565b610e0c8383836001610ef8565b610e3457604051635274afe760e01b81526001600160a01b0384166004820152602401610993565b505050565b6040516323b872dd60e01b5f8181526001600160a01b038781166004528616602452604485905291602083606481808c5af1925060015f51148316610e95578383151615610e89573d5f823e3d81fd5b5f883b113d1516831692505b604052505f60605295945050505050565b610eb28383835f610f5a565b610e3457610ec383835f6001610f5a565b610eeb57604051635274afe760e01b81526001600160a01b0384166004820152602401610993565b610e0c8383836001610f5a565b60405163a9059cbb60e01b5f8181526001600160a01b038616600452602485905291602083604481808b5af1925060015f51148316610f4e578383151615610f42573d5f823e3d81fd5b5f873b113d1516831692505b60405250949350505050565b60405163095ea7b360e01b5f8181526001600160a01b038616600452602485905291602083604481808b5af1925060015f51148316610f4e578383151615610f42573d5f823e3d81fd5b5f5f60408385031215610fb5575f5ffd5b50508035926020909101359150565b5f60208284031215610fd4575f5ffd5b81356001600160a01b0381168114610fea575f5ffd5b9392505050565b634e487b7160e01b5f52604160045260245ffd5b634e487b7160e01b5f52603260045260245ffd5b5f60208284031215611029575f5ffd5b5051919050565b634e487b7160e01b5f52601160045260245ffd5b8082018082111561105757611057611030565b92915050565b5f60a0820187835286602084015260a0604084015280865180835260c0850191506020880192505f5b818110156110cd57835180516001600160a01b0390811685526020808301518216818701526040928301519091169185019190915290930192606090920191600101611086565b50506001600160a01b038616606085015291506110e79050565b8260808301529695505050505050565b5f60208284031215611107575f5ffd5b815167ffffffffffffffff81111561111d575f5ffd5b8201601f8101841361112d575f5ffd5b805167ffffffffffffffff81111561114757611147610ff1565b8060051b604051601f19603f830116810181811067ffffffffffffffff8211171561117457611174610ff1565b604052918252602081840181019290810187841115611191575f5ffd5b6020850194505b838510156111b457845180825260209586019590935001611198565b509695505050505050565b818103818111156110575761105761103056fea2646970667358221220c7a0153aa04636f32b2debdf13a3d3f843d92e07460b6951ce8fd8dd4003126d64736f6c634300081c0033",
  "linkReferences": {},
  "deployedLinkReferences": {},
  "immutableReferences": {
    "652": [
      {
        "length": 32,
        "start": 411
      },
      {
        "length": 32,
        "start": 886
      },
      {
        "length": 32,
        "start": 971
      },
      {
        "length": 32,
        "start": 1103
      },
      {
        "length": 32,
        "start": 1149
      },
      {
        "length": 32,
        "start": 1784
      },
      {
        "length": 32,
        "start": 1830
      },
      {
        "length": 32,
        "start": 2221
      },
      {
        "length": 32,
        "start": 2306
      }
    ],
    "655": [
      {
        "length": 32,
        "start": 212
      },
      {
        "length": 32,
        "start": 807
      },
      {
        "length": 32,
        "start": 853
      },
      {
        "length": 32,
        "start": 1182
      },
      {
        "length": 32,
        "start": 1226
      },
      {
        "length": 32,
        "start": 1863
      },
      {
        "length": 32,
        "start": 1907
      },
      {
        "length": 32,
        "start": 2142
      },
      {
        "length": 32,
        "start": 2188
      }
    ],
    "658": [
      {
        "length": 32,
        "start": 588
      },
      {
        "length": 32,
        "start": 728
      },
      {
        "length": 32,
        "start": 774
      },
      {
        "length": 32,
        "start": 1259
      },
      {
        "length": 32,
        "start": 1940
      },
      {
        "length": 32,
        "start": 2063
      },
      {
        "length": 32,
        "start": 2109
      }
    ],
    "661": [
      {
        "length": 32,
        "start": 490
      },
      {
        "length": 32,
        "start": 3257
      },
      {
        "length": 32,
        "start": 3340
      }
    ],
    "664": [
      {
        "length": 32,
        "start": 627
      },
      {
        "length": 32,
        "start": 2482
      },
      {
        "length": 32,
        "start": 2820
      }
    ],
    "666": [
      {
        "length": 32,
        "start": 372
      },
      {
        "length": 32,
        "start": 2629
      }
    ]
  },
  "inputSourceName": "project/contracts/GPBRVSwapper.sol",
  "buildInfoId": "solc-0_8_28-0078594bd244f82d4048867973be7d9f1e2f300f"
}